{"abi":[{"type":"constructor","inputs":[{"name":"_token","type":"address","internalType":"address"}],"stateMutability":"nonpayable"},{"type":"function","name":"DOMAIN_SEPARATOR","inputs":[],"outputs":[{"name":"","type":"bytes32","internalType":"bytes32"}],"stateMutability":"view"},{"type":"function","name":"PERMIT_DEPOSIT_TYPEHASH","inputs":[],"outputs":[{"name":"","type":"bytes32","internalType":"bytes32"}],"stateMutability":"view"},{"type":"function","name":"balanceOf","inputs":[{"name":"user","type":"address","internalType":"address"}],"outputs":[{"name":"","type":"uint256","internalType":"uint256"}],"stateMutability":"view"},{"type":"function","name":"deposit","inputs":[{"name":"amount","type":"uint256","internalType":"uint256"}],"outputs":[],"stateMutability":"nonpayable"},{"type":"function","name":"deposits","inputs":[{"name":"","type":"address","internalType":"address"}],"outputs":[{"name":"","type":"uint256","internalType":"uint256"}],"stateMutability":"view"},{"type":"function","name":"permitDeposit","inputs":[{"name":"owner","type":"address","internalType":"address"},{"name":"amount","type":"uint256","internalType":"uint256"},{"name":"deadline","type":"uint256","internalType":"uint256"},{"name":"v","type":"uint8","internalType":"uint8"},{"name":"r","type":"bytes32","internalType":"bytes32"},{"name":"s","type":"bytes32","internalType":"bytes32"}],"outputs":[],"stateMutability":"nonpayable"},{"type":"function","name":"token","inputs":[],"outputs":[{"name":"","type":"address","internalType":"contract BinToken"}],"stateMutability":"view"},{"type":"function","name":"totalDeposits","inputs":[],"outputs":[{"name":"","type":"uint256","internalType":"uint256"}],"stateMutability":"view"},{"type":"function","name":"withdraw","inputs":[{"name":"amount","type":"uint256","internalType":"uint256"}],"outputs":[],"stateMutability":"nonpayable"},{"type":"event","name":"Deposit","inputs":[{"name":"user","type":"address","indexed":true,"internalType":"address"},{"name":"amount","type":"uint256","indexed":false,"internalType":"uint256"}],"anonymous":false},{"type":"event","name":"Withdraw","inputs":[{"name":"user","type":"address","indexed":true,"internalType":"address"},{"name":"amount","type":"uint256","indexed":false,"internalType":"uint256"}],"anonymous":false},{"type":"error","name":"ECDSAInvalidSignature","inputs":[]},{"type":"error","name":"ECDSAInvalidSignatureLength","inputs":[{"name":"length","type":"uint256","internalType":"uint256"}]},{"type":"error","name":"ECDSAInvalidSignatureS","inputs":[{"name":"s","type":"bytes32","internalType":"bytes32"}]}],"bytecode":{"object":"0x608060405234801562000010575f80fd5b50604051620016a1380380620016a1833981810160405281019062000036919062000178565b8060015f6101000a81548173ffffffffffffffffffffffffffffffffffffffff021916908373ffffffffffffffffffffffffffffffffffffffff1602179055507f8b73c3c69bb8fe3d512ecc4cf759cc79239f7b179b0ffacaa9a75d522b39400f7f67e4f6aa4bb5023cb55a00ca83d260810273f6fa9dfbbe9875b28b0b2ee28c8d7fc89efdaa54c0f20c7adf612882df0950f5a951637e0307cdcb4c672f298b8bc64630604051602001620000f1959493929190620001ed565b604051602081830303815290604052805190602001205f819055505062000248565b5f80fd5b5f73ffffffffffffffffffffffffffffffffffffffff82169050919050565b5f620001428262000117565b9050919050565b620001548162000136565b81146200015f575f80fd5b50565b5f81519050620001728162000149565b92915050565b5f6020828403121562000190576200018f62000113565b5b5f6200019f8482850162000162565b91505092915050565b5f819050919050565b620001bc81620001a8565b82525050565b5f819050919050565b620001d681620001c2565b82525050565b620001e78162000136565b82525050565b5f60a082019050620002025f830188620001b1565b620002116020830187620001b1565b620002206040830186620001b1565b6200022f6060830185620001cb565b6200023e6080830184620001dc565b9695505050505050565b61144b80620002565f395ff3fe608060405234801561000f575f80fd5b5060043610610091575f3560e01c80638f7b1bca116100645780638f7b1bca1461011d5780638feef58b14610139578063b6b55f2514610157578063fc0c546a14610173578063fc7e286d1461019157610091565b80632e1a7d4d146100955780633644e515146100b157806370a08231146100cf5780637d882097146100ff575b5f80fd5b6100af60048036038101906100aa9190610bec565b6101c1565b005b6100b961041a565b6040516100c69190610c2f565b60405180910390f35b6100e960048036038101906100e49190610ca2565b61041f565b6040516100f69190610cdc565b60405180910390f35b610107610465565b6040516101149190610cdc565b60405180910390f35b61013760048036038101906101329190610d55565b61046b565b005b6101416106f7565b60405161014e9190610c2f565b60405180910390f35b610171600480360381019061016c9190610bec565b61071b565b005b61017b610728565b6040516101889190610e39565b60405180910390f35b6101ab60048036038101906101a69190610ca2565b61074d565b6040516101b89190610cdc565b60405180910390f35b5f8111610203576040517f08c379a00000000000000000000000000000000000000000000000000000000081526004016101fa90610eac565b60405180910390fd5b8060025f3373ffffffffffffffffffffffffffffffffffffffff1673ffffffffffffffffffffffffffffffffffffffff1681526020019081526020015f20541015610283576040517f08c379a000000000000000000000000000000000000000000000000000000000815260040161027a90610f14565b60405180910390fd5b8060025f3373ffffffffffffffffffffffffffffffffffffffff1673ffffffffffffffffffffffffffffffffffffffff1681526020019081526020015f205f8282546102cf9190610f5f565b925050819055508060035f8282546102e79190610f5f565b9250508190555060015f9054906101000a900473ffffffffffffffffffffffffffffffffffffffff1673ffffffffffffffffffffffffffffffffffffffff1663a9059cbb33836040518363ffffffff1660e01b815260040161034a929190610fa1565b6020604051808303815f875af1158015610366573d5f803e3d5ffd5b505050506040513d601f19601f8201168201806040525081019061038a9190610ffd565b6103c9576040517f08c379a00000000000000000000000000000000000000000000000000000000081526004016103c090611072565b60405180910390fd5b3373ffffffffffffffffffffffffffffffffffffffff167f884edad9ce6fa2440d8a54cc123490eb96d2768479d49ff9c7366125a94243648260405161040f9190610cdc565b60405180910390a250565b5f5481565b5f60025f8373ffffffffffffffffffffffffffffffffffffffff1673ffffffffffffffffffffffffffffffffffffffff1681526020019081526020015f20549050919050565b60035481565b834211156104ae576040517f08c379a00000000000000000000000000000000000000000000000000000000081526004016104a5906110da565b60405180910390fd5b5f7f7912ea91c48846d9e6b45e35db3131fbab2b4673c64e87c0277653e9214b165187308860015f9054906101000a900473ffffffffffffffffffffffffffffffffffffffff1673ffffffffffffffffffffffffffffffffffffffff16637ecebe008c6040518263ffffffff1660e01b815260040161052d91906110f8565b602060405180830381865afa158015610548573d5f803e3d5ffd5b505050506040513d601f19601f8201168201806040525081019061056c9190611125565b8960405160200161058296959493929190611150565b6040516020818303038152906040528051906020012090505f8054826040516020016105af929190611223565b6040516020818303038152906040528051906020012090505f6105df86868685610762909392919063ffffffff16565b90508873ffffffffffffffffffffffffffffffffffffffff168173ffffffffffffffffffffffffffffffffffffffff161461064f576040517f08c379a0000000000000000000000000000000000000000000000000000000008152600401610646906112a3565b60405180910390fd5b60015f9054906101000a900473ffffffffffffffffffffffffffffffffffffffff1673ffffffffffffffffffffffffffffffffffffffff1663d505accf8a308b8b8b8b8b6040518863ffffffff1660e01b81526004016106b597969594939291906112d0565b5f604051808303815f87803b1580156106cc575f80fd5b505af11580156106de573d5f803e3d5ffd5b505050506106ec8989610790565b505050505050505050565b7f7912ea91c48846d9e6b45e35db3131fbab2b4673c64e87c0277653e9214b165181565b6107253382610790565b50565b60015f9054906101000a900473ffffffffffffffffffffffffffffffffffffffff1681565b6002602052805f5260405f205f915090505481565b5f805f806107728888888861096c565b9250925092506107828282610a53565b829350505050949350505050565b5f81116107d2576040517f08c379a00000000000000000000000000000000000000000000000000000000081526004016107c990610eac565b60405180910390fd5b60015f9054906101000a900473ffffffffffffffffffffffffffffffffffffffff1673ffffffffffffffffffffffffffffffffffffffff166323b872dd3330846040518463ffffffff1660e01b81526004016108309392919061133d565b6020604051808303815f875af115801561084c573d5f803e3d5ffd5b505050506040513d601f19601f820116820180604052508101906108709190610ffd565b6108af576040517f08c379a00000000000000000000000000000000000000000000000000000000081526004016108a690611072565b60405180910390fd5b8060025f3373ffffffffffffffffffffffffffffffffffffffff1673ffffffffffffffffffffffffffffffffffffffff1681526020019081526020015f205f8282546108fb9190611372565b925050819055508060035f8282546109139190611372565b925050819055503373ffffffffffffffffffffffffffffffffffffffff167fe1fffcc4923d04b559f4d29a8bfc6cda04eb5b0d3c460751c2402c5c5cc9109c826040516109609190610cdc565b60405180910390a25050565b5f805f7f7fffffffffffffffffffffffffffffff5d576e7357a4501ddfe92f46681b20a0845f1c11156109a8575f600385925092509250610a49565b5f6001888888886040515f81526020016040526040516109cb94939291906113a5565b6020604051602081039080840390855afa1580156109eb573d5f803e3d5ffd5b5050506020604051035190505f73ffffffffffffffffffffffffffffffffffffffff168173ffffffffffffffffffffffffffffffffffffffff1603610a3c575f60015f801b93509350935050610a49565b805f805f1b935093509350505b9450945094915050565b5f6003811115610a6657610a656113e8565b5b826003811115610a7957610a786113e8565b5b0315610bb15760016003811115610a9357610a926113e8565b5b826003811115610aa657610aa56113e8565b5b03610add576040517ff645eedf00000000000000000000000000000000000000000000000000000000815260040160405180910390fd5b60026003811115610af157610af06113e8565b5b826003811115610b0457610b036113e8565b5b03610b4857805f1c6040517ffce698f7000000000000000000000000000000000000000000000000000000008152600401610b3f9190610cdc565b60405180910390fd5b600380811115610b5b57610b5a6113e8565b5b826003811115610b6e57610b6d6113e8565b5b03610bb057806040517fd78bce0c000000000000000000000000000000000000000000000000000000008152600401610ba79190610c2f565b60405180910390fd5b5b5050565b5f80fd5b5f819050919050565b610bcb81610bb9565b8114610bd5575f80fd5b50565b5f81359050610be681610bc2565b92915050565b5f60208284031215610c0157610c00610bb5565b5b5f610c0e84828501610bd8565b91505092915050565b5f819050919050565b610c2981610c17565b82525050565b5f602082019050610c425f830184610c20565b92915050565b5f73ffffffffffffffffffffffffffffffffffffffff82169050919050565b5f610c7182610c48565b9050919050565b610c8181610c67565b8114610c8b575f80fd5b50565b5f81359050610c9c81610c78565b92915050565b5f60208284031215610cb757610cb6610bb5565b5b5f610cc484828501610c8e565b91505092915050565b610cd681610bb9565b82525050565b5f602082019050610cef5f830184610ccd565b92915050565b5f60ff82169050919050565b610d0a81610cf5565b8114610d14575f80fd5b50565b5f81359050610d2581610d01565b92915050565b610d3481610c17565b8114610d3e575f80fd5b50565b5f81359050610d4f81610d2b565b92915050565b5f805f805f8060c08789031215610d6f57610d6e610bb5565b5b5f610d7c89828a01610c8e565b9650506020610d8d89828a01610bd8565b9550506040610d9e89828a01610bd8565b9450506060610daf89828a01610d17565b9350506080610dc089828a01610d41565b92505060a0610dd189828a01610d41565b9150509295509295509295565b5f819050919050565b5f610e01610dfc610df784610c48565b610dde565b610c48565b9050919050565b5f610e1282610de7565b9050919050565b5f610e2382610e08565b9050919050565b610e3381610e19565b82525050565b5f602082019050610e4c5f830184610e2a565b92915050565b5f82825260208201905092915050565b7f416d6f756e74206d7573742062652067726561746572207468616e20300000005f82015250565b5f610e96601d83610e52565b9150610ea182610e62565b602082019050919050565b5f6020820190508181035f830152610ec381610e8a565b9050919050565b7f496e73756666696369656e742062616c616e63650000000000000000000000005f82015250565b5f610efe601483610e52565b9150610f0982610eca565b602082019050919050565b5f6020820190508181035f830152610f2b81610ef2565b9050919050565b7f4e487b71000000000000000000000000000000000000000000000000000000005f52601160045260245ffd5b5f610f6982610bb9565b9150610f7483610bb9565b9250828203905081811115610f8c57610f8b610f32565b5b92915050565b610f9b81610c67565b82525050565b5f604082019050610fb45f830185610f92565b610fc16020830184610ccd565b9392505050565b5f8115159050919050565b610fdc81610fc8565b8114610fe6575f80fd5b50565b5f81519050610ff781610fd3565b92915050565b5f6020828403121561101257611011610bb5565b5b5f61101f84828501610fe9565b91505092915050565b7f5472616e73666572206661696c656400000000000000000000000000000000005f82015250565b5f61105c600f83610e52565b915061106782611028565b602082019050919050565b5f6020820190508181035f83015261108981611050565b9050919050565b7f5065726d697420657870697265640000000000000000000000000000000000005f82015250565b5f6110c4600e83610e52565b91506110cf82611090565b602082019050919050565b5f6020820190508181035f8301526110f1816110b8565b9050919050565b5f60208201905061110b5f830184610f92565b92915050565b5f8151905061111f81610bc2565b92915050565b5f6020828403121561113a57611139610bb5565b5b5f61114784828501611111565b91505092915050565b5f60c0820190506111635f830189610c20565b6111706020830188610f92565b61117d6040830187610f92565b61118a6060830186610ccd565b6111976080830185610ccd565b6111a460a0830184610ccd565b979650505050505050565b5f81905092915050565b7f19010000000000000000000000000000000000000000000000000000000000005f82015250565b5f6111ed6002836111af565b91506111f8826111b9565b600282019050919050565b5f819050919050565b61121d61121882610c17565b611203565b82525050565b5f61122d826111e1565b9150611239828561120c565b602082019150611249828461120c565b6020820191508190509392505050565b7f496e76616c6964207369676e61747572650000000000000000000000000000005f82015250565b5f61128d601183610e52565b915061129882611259565b602082019050919050565b5f6020820190508181035f8301526112ba81611281565b9050919050565b6112ca81610cf5565b82525050565b5f60e0820190506112e35f83018a610f92565b6112f06020830189610f92565b6112fd6040830188610ccd565b61130a6060830187610ccd565b61131760808301866112c1565b61132460a0830185610c20565b61133160c0830184610c20565b98975050505050505050565b5f6060820190506113505f830186610f92565b61135d6020830185610f92565b61136a6040830184610ccd565b949350505050565b5f61137c82610bb9565b915061138783610bb9565b925082820190508082111561139f5761139e610f32565b5b92915050565b5f6080820190506113b85f830187610c20565b6113c560208301866112c1565b6113d26040830185610c20565b6113df6060830184610c20565b95945050505050565b7f4e487b71000000000000000000000000000000000000000000000000000000005f52602160045260245ffdfea26469706673582212204ffcb7f2d1d17f01deaa3a2d0c6073cd6ad699e4035fc14d2f76566be38fda7164736f6c63430008140033","linkReferences":{}},"methodIdentifiers":{"DOMAIN_SEPARATOR()":"3644e515","PERMIT_DEPOSIT_TYPEHASH()":"8feef58b","balanceOf(address)":"70a08231","deposit(uint256)":"b6b55f25","deposits(address)":"fc7e286d","permitDeposit(address,uint256,uint256,uint8,bytes32,bytes32)":"8f7b1bca","token()":"fc0c546a","totalDeposits()":"7d882097","withdraw(uint256)":"2e1a7d4d"},"id":47}