{"abi":[{"type":"constructor","inputs":[{"name":"_paymentToken","type":"address","internalType":"address"},{"name":"_signer","type":"address","internalType":"address"}],"stateMutability":"nonpayable"},{"type":"function","name":"_PERMIT_TYPEHASH","inputs":[],"outputs":[{"name":"","type":"bytes32","internalType":"bytes32"}],"stateMutability":"view"},{"type":"function","name":"buyNFT","inputs":[{"name":"nftContract","type":"address","internalType":"address"},{"name":"tokenId","type":"uint256","internalType":"uint256"}],"outputs":[],"stateMutability":"nonpayable"},{"type":"function","name":"eip712Domain","inputs":[],"outputs":[{"name":"fields","type":"bytes1","internalType":"bytes1"},{"name":"name","type":"string","internalType":"string"},{"name":"version","type":"string","internalType":"string"},{"name":"chainId","type":"uint256","internalType":"uint256"},{"name":"verifyingContract","type":"address","internalType":"address"},{"name":"salt","type":"bytes32","internalType":"bytes32"},{"name":"extensions","type":"uint256[]","internalType":"uint256[]"}],"stateMutability":"view"},{"type":"function","name":"list","inputs":[{"name":"nftContract","type":"address","internalType":"address"},{"name":"tokenId","type":"uint256","internalType":"uint256"},{"name":"price","type":"uint256","internalType":"uint256"}],"outputs":[],"stateMutability":"nonpayable"},{"type":"function","name":"listings","inputs":[{"name":"","type":"address","internalType":"address"},{"name":"","type":"uint256","internalType":"uint256"}],"outputs":[{"name":"seller","type":"address","internalType":"address"},{"name":"price","type":"uint256","internalType":"uint256"}],"stateMutability":"view"},{"type":"function","name":"nonces","inputs":[{"name":"","type":"address","internalType":"address"}],"outputs":[{"name":"","type":"uint256","internalType":"uint256"}],"stateMutability":"view"},{"type":"function","name":"onERC721Received","inputs":[{"name":"","type":"address","internalType":"address"},{"name":"","type":"address","internalType":"address"},{"name":"","type":"uint256","internalType":"uint256"},{"name":"","type":"bytes","internalType":"bytes"}],"outputs":[{"name":"","type":"bytes4","internalType":"bytes4"}],"stateMutability":"pure"},{"type":"function","name":"paymentToken","inputs":[],"outputs":[{"name":"","type":"address","internalType":"contract IERC20"}],"stateMutability":"view"},{"type":"function","name":"permitBuy","inputs":[{"name":"nftContract","type":"address","internalType":"address"},{"name":"tokenId","type":"uint256","internalType":"uint256"},{"name":"nonce","type":"uint256","internalType":"uint256"},{"name":"signature","type":"bytes","internalType":"bytes"}],"outputs":[],"stateMutability":"nonpayable"},{"type":"function","name":"signer","inputs":[],"outputs":[{"name":"","type":"address","internalType":"address"}],"stateMutability":"view"},{"type":"function","name":"usedSignatures","inputs":[{"name":"","type":"bytes32","internalType":"bytes32"}],"outputs":[{"name":"","type":"bool","internalType":"bool"}],"stateMutability":"view"},{"type":"event","name":"EIP712DomainChanged","inputs":[],"anonymous":false},{"type":"event","name":"Listed","inputs":[{"name":"seller","type":"address","indexed":true,"internalType":"address"},{"name":"nftContract","type":"address","indexed":true,"internalType":"address"},{"name":"tokenId","type":"uint256","indexed":true,"internalType":"uint256"},{"name":"price","type":"uint256","indexed":false,"internalType":"uint256"}],"anonymous":false},{"type":"event","name":"Sold","inputs":[{"name":"buyer","type":"address","indexed":true,"internalType":"address"},{"name":"nftContract","type":"address","indexed":true,"internalType":"address"},{"name":"tokenId","type":"uint256","indexed":true,"internalType":"uint256"},{"name":"price","type":"uint256","indexed":false,"internalType":"uint256"}],"anonymous":false},{"type":"error","name":"ECDSAInvalidSignature","inputs":[]},{"type":"error","name":"ECDSAInvalidSignatureLength","inputs":[{"name":"length","type":"uint256","internalType":"uint256"}]},{"type":"error","name":"ECDSAInvalidSignatureS","inputs":[{"name":"s","type":"bytes32","internalType":"bytes32"}]},{"type":"error","name":"InvalidShortString","inputs":[]},{"type":"error","name":"StringTooLong","inputs":[{"name":"str","type":"string","internalType":"string"}]}],"bytecode":{"object":"0x6101a060405234801562000011575f80fd5b5060405162002a7c38038062002a7c83398181016040528101906200003791906200034d565b6040518060400160405280600981526020017f4e46544d61726b657400000000000000000000000000000000000000000000008152506040518060400160405280600181526020017f3100000000000000000000000000000000000000000000000000000000000000815250620000b85f83620001c460201b90919060201c565b6101208181525050620000d6600182620001c460201b90919060201c565b6101408181525050818051906020012060e08181525050808051906020012061010081815250504660a08181525050620001156200021960201b60201c565b608081815250503073ffffffffffffffffffffffffffffffffffffffff1660c08173ffffffffffffffffffffffffffffffffffffffff168152505050508173ffffffffffffffffffffffffffffffffffffffff166101608173ffffffffffffffffffffffffffffffffffffffff16815250508073ffffffffffffffffffffffffffffffffffffffff166101808173ffffffffffffffffffffffffffffffffffffffff16815250505050620008bb565b5f602083511015620001e957620001e1836200027560201b60201c565b905062000213565b82620001fb83620002df60201b60201c565b5f0190816200020b9190620005f6565b5060ff5f1b90505b92915050565b5f7f8b73c3c69bb8fe3d512ecc4cf759cc79239f7b179b0ffacaa9a75d522b39400f60e0516101005146306040516020016200025a95949392919062000716565b60405160208183030381529060405280519060200120905090565b5f80829050601f81511115620002c457826040517f305a27a9000000000000000000000000000000000000000000000000000000008152600401620002bb9190620007fb565b60405180910390fd5b805181620002d2906200084c565b5f1c175f1b915050919050565b5f819050919050565b5f80fd5b5f73ffffffffffffffffffffffffffffffffffffffff82169050919050565b5f6200031782620002ec565b9050919050565b62000329816200030b565b811462000334575f80fd5b50565b5f8151905062000347816200031e565b92915050565b5f8060408385031215620003665762000365620002e8565b5b5f620003758582860162000337565b9250506020620003888582860162000337565b9150509250929050565b5f81519050919050565b7f4e487b71000000000000000000000000000000000000000000000000000000005f52604160045260245ffd5b7f4e487b71000000000000000000000000000000000000000000000000000000005f52602260045260245ffd5b5f60028204905060018216806200040e57607f821691505b602082108103620004245762000423620003c9565b5b50919050565b5f819050815f5260205f209050919050565b5f6020601f8301049050919050565b5f82821b905092915050565b5f60088302620004887fffffffffffffffffffffffffffffffffffffffffffffffffffffffffffffffff826200044b565b6200049486836200044b565b95508019841693508086168417925050509392505050565b5f819050919050565b5f819050919050565b5f620004de620004d8620004d284620004ac565b620004b5565b620004ac565b9050919050565b5f819050919050565b620004f983620004be565b620005116200050882620004e5565b84845462000457565b825550505050565b5f90565b6200052762000519565b62000534818484620004ee565b505050565b5b818110156200055b576200054f5f826200051d565b6001810190506200053a565b5050565b601f821115620005aa5762000574816200042a565b6200057f846200043c565b810160208510156200058f578190505b620005a76200059e856200043c565b83018262000539565b50505b505050565b5f82821c905092915050565b5f620005cc5f1984600802620005af565b1980831691505092915050565b5f620005e68383620005bb565b9150826002028217905092915050565b620006018262000392565b67ffffffffffffffff8111156200061d576200061c6200039c565b5b620006298254620003f6565b620006368282856200055f565b5f60209050601f8311600181146200066c575f841562000657578287015190505b620006638582620005d9565b865550620006d2565b601f1984166200067c866200042a565b5f5b82811015620006a5578489015182556001820191506020850194506020810190506200067e565b86831015620006c55784890151620006c1601f891682620005bb565b8355505b6001600288020188555050505b505050505050565b5f819050919050565b620006ee81620006da565b82525050565b620006ff81620004ac565b82525050565b62000710816200030b565b82525050565b5f60a0820190506200072b5f830188620006e3565b6200073a6020830187620006e3565b620007496040830186620006e3565b620007586060830185620006f4565b62000767608083018462000705565b9695505050505050565b5f82825260208201905092915050565b5f5b83811015620007a057808201518184015260208101905062000783565b5f8484015250505050565b5f601f19601f8301169050919050565b5f620007c78262000392565b620007d3818562000771565b9350620007e581856020860162000781565b620007f081620007ab565b840191505092915050565b5f6020820190508181035f830152620008158184620007bb565b905092915050565b5f81519050919050565b5f819050602082019050919050565b5f620008438251620006da565b80915050919050565b5f62000858826200081d565b82620008648462000827565b9050620008718162000836565b92506020821015620008b457620008af7fffffffffffffffffffffffffffffffffffffffffffffffffffffffffffffffff836020036008026200044b565b831692505b5050919050565b60805160a05160c05160e051610100516101205161014051610160516101805161214d6200092f5f395f818161029d015261048901525f81816102c10152610ba601525f610a4901525f610a0e01525f6111f401525f6111d301525f610e9301525f610ee901525f610f12015261214d5ff3fe608060405234801561000f575f80fd5b50600436106100a6575f3560e01c806384b0196e1161006f57806384b0196e14610177578063982aaf6b1461019b578063a82ba76f146101b9578063aedd4bcf146101d5578063dda342bb146101f1578063f978fd611461020d576100a6565b806207df30146100aa578063150b7a02146100db578063238ac9331461010b5780633013ce29146101295780637ecebe0014610147575b5f80fd5b6100c460048036038101906100bf9190611417565b61023d565b6040516100d2929190611473565b60405180910390f35b6100f560048036038101906100f091906114fb565b610287565b60405161010291906115b9565b60405180910390f35b61011361029b565b60405161012091906115d2565b60405180910390f35b6101316102bf565b60405161013e9190611646565b60405180910390f35b610161600480360381019061015c919061165f565b6102e3565b60405161016e919061168a565b60405180910390f35b61017f6102f8565b6040516101929796959493929190611836565b60405180910390f35b6101a361039d565b6040516101b091906118b8565b60405180910390f35b6101d360048036038101906101ce9190611417565b6103c1565b005b6101ef60048036038101906101ea91906119f9565b6103cf565b005b61020b60048036038101906102069190611a79565b610629565b005b61022760048036038101906102229190611af3565b6109e9565b6040516102349190611b38565b60405180910390f35b6002602052815f5260405f20602052805f5260405f205f9150915050805f015f9054906101000a900473ffffffffffffffffffffffffffffffffffffffff16908060010154905082565b5f63150b7a0260e01b905095945050505050565b7f000000000000000000000000000000000000000000000000000000000000000081565b7f000000000000000000000000000000000000000000000000000000000000000081565b6004602052805f5260405f205f915090505481565b5f6060805f805f6060610309610a06565b610311610a40565b46305f801b5f67ffffffffffffffff8111156103305761032f6118d5565b5b60405190808252806020026020018201604052801561035e5781602001602082028036833780820191505090505b507f0f00000000000000000000000000000000000000000000000000000000000000959493929190965096509650965096509650965090919293949596565b7f1078eaba3ff3c2ca1576fe2b300977d087fdb3926fb508e296b07eceeeb8d61f81565b6103cb8282610a7b565b5050565b5f6104277f1078eaba3ff3c2ca1576fe2b300977d087fdb3926fb508e296b07eceeeb8d61f3387878760405160200161040c959493929190611b51565b60405160208183030381529060405280519060200120610da0565b905060035f8281526020019081526020015f205f9054906101000a900460ff1615610487576040517f08c379a000000000000000000000000000000000000000000000000000000000815260040161047e90611bec565b60405180910390fd5b7f000000000000000000000000000000000000000000000000000000000000000073ffffffffffffffffffffffffffffffffffffffff166104c88284610db9565b73ffffffffffffffffffffffffffffffffffffffff161461051e576040517f08c379a000000000000000000000000000000000000000000000000000000000815260040161051590611c54565b60405180910390fd5b8260045f3373ffffffffffffffffffffffffffffffffffffffff1673ffffffffffffffffffffffffffffffffffffffff1681526020019081526020015f20541461059d576040517f08c379a000000000000000000000000000000000000000000000000000000000815260040161059490611cbc565b60405180910390fd5b600160035f8381526020019081526020015f205f6101000a81548160ff02191690831515021790555060045f3373ffffffffffffffffffffffffffffffffffffffff1673ffffffffffffffffffffffffffffffffffffffff1681526020019081526020015f205f81548092919061061390611d07565b91905055506106228585610a7b565b5050505050565b5f811161066b576040517f08c379a000000000000000000000000000000000000000000000000000000000815260040161066290611d98565b60405180910390fd5b3373ffffffffffffffffffffffffffffffffffffffff168373ffffffffffffffffffffffffffffffffffffffff16636352211e846040518263ffffffff1660e01b81526004016106bb919061168a565b602060405180830381865afa1580156106d6573d5f803e3d5ffd5b505050506040513d601f19601f820116820180604052508101906106fa9190611dca565b73ffffffffffffffffffffffffffffffffffffffff1614610750576040517f08c379a000000000000000000000000000000000000000000000000000000000815260040161074790611e3f565b60405180910390fd5b3073ffffffffffffffffffffffffffffffffffffffff168373ffffffffffffffffffffffffffffffffffffffff1663081812fc846040518263ffffffff1660e01b81526004016107a0919061168a565b602060405180830381865afa1580156107bb573d5f803e3d5ffd5b505050506040513d601f19601f820116820180604052508101906107df9190611dca565b73ffffffffffffffffffffffffffffffffffffffff16148061087757508273ffffffffffffffffffffffffffffffffffffffff1663e985e9c533306040518363ffffffff1660e01b8152600401610837929190611e5d565b602060405180830381865afa158015610852573d5f803e3d5ffd5b505050506040513d601f19601f820116820180604052508101906108769190611eae565b5b6108b6576040517f08c379a00000000000000000000000000000000000000000000000000000000081526004016108ad90611f23565b60405180910390fd5b60405180604001604052803373ffffffffffffffffffffffffffffffffffffffff1681526020018281525060025f8573ffffffffffffffffffffffffffffffffffffffff1673ffffffffffffffffffffffffffffffffffffffff1681526020019081526020015f205f8481526020019081526020015f205f820151815f015f6101000a81548173ffffffffffffffffffffffffffffffffffffffff021916908373ffffffffffffffffffffffffffffffffffffffff16021790555060208201518160010155905050818373ffffffffffffffffffffffffffffffffffffffff163373ffffffffffffffffffffffffffffffffffffffff167fd9d69fee247951cc283dc6f5b64c36ce396a36146405a798b86ebfd113c8b5ca846040516109dc919061168a565b60405180910390a4505050565b6003602052805f5260405f205f915054906101000a900460ff1681565b6060610a3b5f7f0000000000000000000000000000000000000000000000000000000000000000610de390919063ffffffff16565b905090565b6060610a7660017f0000000000000000000000000000000000000000000000000000000000000000610de390919063ffffffff16565b905090565b5f60025f8473ffffffffffffffffffffffffffffffffffffffff1673ffffffffffffffffffffffffffffffffffffffff1681526020019081526020015f205f8381526020019081526020015f206040518060400160405290815f82015f9054906101000a900473ffffffffffffffffffffffffffffffffffffffff1673ffffffffffffffffffffffffffffffffffffffff1673ffffffffffffffffffffffffffffffffffffffff16815260200160018201548152505090505f73ffffffffffffffffffffffffffffffffffffffff16815f015173ffffffffffffffffffffffffffffffffffffffff1603610ba4576040517f08c379a0000000000000000000000000000000000000000000000000000000008152600401610b9b90611f8b565b60405180910390fd5b7f000000000000000000000000000000000000000000000000000000000000000073ffffffffffffffffffffffffffffffffffffffff166323b872dd33835f015184602001516040518463ffffffff1660e01b8152600401610c0893929190611fa9565b6020604051808303815f875af1158015610c24573d5f803e3d5ffd5b505050506040513d601f19601f82011682018060405250810190610c489190611eae565b508273ffffffffffffffffffffffffffffffffffffffff166342842e0e825f015133856040518463ffffffff1660e01b8152600401610c8993929190611fa9565b5f604051808303815f87803b158015610ca0575f80fd5b505af1158015610cb2573d5f803e3d5ffd5b5050505060025f8473ffffffffffffffffffffffffffffffffffffffff1673ffffffffffffffffffffffffffffffffffffffff1681526020019081526020015f205f8381526020019081526020015f205f8082015f6101000a81549073ffffffffffffffffffffffffffffffffffffffff0219169055600182015f90555050818373ffffffffffffffffffffffffffffffffffffffff163373ffffffffffffffffffffffffffffffffffffffff167f16dd16959a056953a63cf14bf427881e762e54f03d86b864efea8238dd3b822f8460200151604051610d93919061168a565b60405180910390a4505050565b5f610db2610dac610e90565b83610f46565b9050919050565b5f805f80610dc78686610f86565b925092509250610dd78282610fdb565b82935050505092915050565b606060ff5f1b8314610dff57610df88361113d565b9050610e8a565b818054610e0b9061200b565b80601f0160208091040260200160405190810160405280929190818152602001828054610e379061200b565b8015610e825780601f10610e5957610100808354040283529160200191610e82565b820191905f5260205f20905b815481529060010190602001808311610e6557829003601f168201915b505050505090505b92915050565b5f7f000000000000000000000000000000000000000000000000000000000000000073ffffffffffffffffffffffffffffffffffffffff163073ffffffffffffffffffffffffffffffffffffffff16148015610f0b57507f000000000000000000000000000000000000000000000000000000000000000046145b15610f38577f00000000000000000000000000000000000000000000000000000000000000009050610f43565b610f406111af565b90505b90565b5f6040517f190100000000000000000000000000000000000000000000000000000000000081528360028201528260228201526042812091505092915050565b5f805f6041845103610fc6575f805f602087015192506040870151915060608701515f1a9050610fb888828585611244565b955095509550505050610fd4565b5f600285515f1b9250925092505b9250925092565b5f6003811115610fee57610fed61203b565b5b8260038111156110015761100061203b565b5b0315611139576001600381111561101b5761101a61203b565b5b82600381111561102e5761102d61203b565b5b03611065576040517ff645eedf00000000000000000000000000000000000000000000000000000000815260040160405180910390fd5b600260038111156110795761107861203b565b5b82600381111561108c5761108b61203b565b5b036110d057805f1c6040517ffce698f70000000000000000000000000000000000000000000000000000000081526004016110c7919061168a565b60405180910390fd5b6003808111156110e3576110e261203b565b5b8260038111156110f6576110f561203b565b5b0361113857806040517fd78bce0c00000000000000000000000000000000000000000000000000000000815260040161112f91906118b8565b60405180910390fd5b5b5050565b60605f6111498361132b565b90505f602067ffffffffffffffff811115611167576111666118d5565b5b6040519080825280601f01601f1916602001820160405280156111995781602001600182028036833780820191505090505b5090508181528360208201528092505050919050565b5f7f8b73c3c69bb8fe3d512ecc4cf759cc79239f7b179b0ffacaa9a75d522b39400f7f00000000000000000000000000000000000000000000000000000000000000007f00000000000000000000000000000000000000000000000000000000000000004630604051602001611229959493929190612068565b60405160208183030381529060405280519060200120905090565b5f805f7f7fffffffffffffffffffffffffffffff5d576e7357a4501ddfe92f46681b20a0845f1c1115611280575f600385925092509250611321565b5f6001888888886040515f81526020016040526040516112a394939291906120d4565b6020604051602081039080840390855afa1580156112c3573d5f803e3d5ffd5b5050506020604051035190505f73ffffffffffffffffffffffffffffffffffffffff168173ffffffffffffffffffffffffffffffffffffffff1603611314575f60015f801b93509350935050611321565b805f805f1b935093509350505b9450945094915050565b5f8060ff835f1c169050601f811115611370576040517fb3512b0c00000000000000000000000000000000000000000000000000000000815260040160405180910390fd5b80915050919050565b5f604051905090565b5f80fd5b5f80fd5b5f73ffffffffffffffffffffffffffffffffffffffff82169050919050565b5f6113b38261138a565b9050919050565b6113c3816113a9565b81146113cd575f80fd5b50565b5f813590506113de816113ba565b92915050565b5f819050919050565b6113f6816113e4565b8114611400575f80fd5b50565b5f81359050611411816113ed565b92915050565b5f806040838503121561142d5761142c611382565b5b5f61143a858286016113d0565b925050602061144b85828601611403565b9150509250929050565b61145e816113a9565b82525050565b61146d816113e4565b82525050565b5f6040820190506114865f830185611455565b6114936020830184611464565b9392505050565b5f80fd5b5f80fd5b5f80fd5b5f8083601f8401126114bb576114ba61149a565b5b8235905067ffffffffffffffff8111156114d8576114d761149e565b5b6020830191508360018202830111156114f4576114f36114a2565b5b9250929050565b5f805f805f6080868803121561151457611513611382565b5b5f611521888289016113d0565b9550506020611532888289016113d0565b945050604061154388828901611403565b935050606086013567ffffffffffffffff81111561156457611563611386565b5b611570888289016114a6565b92509250509295509295909350565b5f7fffffffff0000000000000000000000000000000000000000000000000000000082169050919050565b6115b38161157f565b82525050565b5f6020820190506115cc5f8301846115aa565b92915050565b5f6020820190506115e55f830184611455565b92915050565b5f819050919050565b5f61160e6116096116048461138a565b6115eb565b61138a565b9050919050565b5f61161f826115f4565b9050919050565b5f61163082611615565b9050919050565b61164081611626565b82525050565b5f6020820190506116595f830184611637565b92915050565b5f6020828403121561167457611673611382565b5b5f611681848285016113d0565b91505092915050565b5f60208201905061169d5f830184611464565b92915050565b5f7fff0000000000000000000000000000000000000000000000000000000000000082169050919050565b6116d7816116a3565b82525050565b5f81519050919050565b5f82825260208201905092915050565b5f5b838110156117145780820151818401526020810190506116f9565b5f8484015250505050565b5f601f19601f8301169050919050565b5f611739826116dd565b61174381856116e7565b93506117538185602086016116f7565b61175c8161171f565b840191505092915050565b5f819050919050565b61177981611767565b82525050565b5f81519050919050565b5f82825260208201905092915050565b5f819050602082019050919050565b6117b1816113e4565b82525050565b5f6117c283836117a8565b60208301905092915050565b5f602082019050919050565b5f6117e48261177f565b6117ee8185611789565b93506117f983611799565b805f5b8381101561182957815161181088826117b7565b975061181b836117ce565b9250506001810190506117fc565b5085935050505092915050565b5f60e0820190506118495f83018a6116ce565b818103602083015261185b818961172f565b9050818103604083015261186f818861172f565b905061187e6060830187611464565b61188b6080830186611455565b61189860a0830185611770565b81810360c08301526118aa81846117da565b905098975050505050505050565b5f6020820190506118cb5f830184611770565b92915050565b5f80fd5b7f4e487b71000000000000000000000000000000000000000000000000000000005f52604160045260245ffd5b61190b8261171f565b810181811067ffffffffffffffff8211171561192a576119296118d5565b5b80604052505050565b5f61193c611379565b90506119488282611902565b919050565b5f67ffffffffffffffff821115611967576119666118d5565b5b6119708261171f565b9050602081019050919050565b828183375f83830152505050565b5f61199d6119988461194d565b611933565b9050828152602081018484840111156119b9576119b86118d1565b5b6119c484828561197d565b509392505050565b5f82601f8301126119e0576119df61149a565b5b81356119f084826020860161198b565b91505092915050565b5f805f8060808587031215611a1157611a10611382565b5b5f611a1e878288016113d0565b9450506020611a2f87828801611403565b9350506040611a4087828801611403565b925050606085013567ffffffffffffffff811115611a6157611a60611386565b5b611a6d878288016119cc565b91505092959194509250565b5f805f60608486031215611a9057611a8f611382565b5b5f611a9d868287016113d0565b9350506020611aae86828701611403565b9250506040611abf86828701611403565b9150509250925092565b611ad281611767565b8114611adc575f80fd5b50565b5f81359050611aed81611ac9565b92915050565b5f60208284031215611b0857611b07611382565b5b5f611b1584828501611adf565b91505092915050565b5f8115159050919050565b611b3281611b1e565b82525050565b5f602082019050611b4b5f830184611b29565b92915050565b5f60a082019050611b645f830188611770565b611b716020830187611455565b611b7e6040830186611455565b611b8b6060830185611464565b611b986080830184611464565b9695505050505050565b7f5369676e617475726520616c72656164792075736564000000000000000000005f82015250565b5f611bd66016836116e7565b9150611be182611ba2565b602082019050919050565b5f6020820190508181035f830152611c0381611bca565b9050919050565b7f496e76616c6964207369676e61747572650000000000000000000000000000005f82015250565b5f611c3e6011836116e7565b9150611c4982611c0a565b602082019050919050565b5f6020820190508181035f830152611c6b81611c32565b9050919050565b7f496e76616c6964206e6f6e6365000000000000000000000000000000000000005f82015250565b5f611ca6600d836116e7565b9150611cb182611c72565b602082019050919050565b5f6020820190508181035f830152611cd381611c9a565b9050919050565b7f4e487b71000000000000000000000000000000000000000000000000000000005f52601160045260245ffd5b5f611d11826113e4565b91507fffffffffffffffffffffffffffffffffffffffffffffffffffffffffffffffff8203611d4357611d42611cda565b5b600182019050919050565b7f5072696365206d7573742062652067726561746572207468616e2030000000005f82015250565b5f611d82601c836116e7565b9150611d8d82611d4e565b602082019050919050565b5f6020820190508181035f830152611daf81611d76565b9050919050565b5f81519050611dc4816113ba565b92915050565b5f60208284031215611ddf57611dde611382565b5b5f611dec84828501611db6565b91505092915050565b7f4e6f7420746865206f776e6572000000000000000000000000000000000000005f82015250565b5f611e29600d836116e7565b9150611e3482611df5565b602082019050919050565b5f6020820190508181035f830152611e5681611e1d565b9050919050565b5f604082019050611e705f830185611455565b611e7d6020830184611455565b9392505050565b611e8d81611b1e565b8114611e97575f80fd5b50565b5f81519050611ea881611e84565b92915050565b5f60208284031215611ec357611ec2611382565b5b5f611ed084828501611e9a565b91505092915050565b7f4e4654206e6f7420617070726f766564000000000000000000000000000000005f82015250565b5f611f0d6010836116e7565b9150611f1882611ed9565b602082019050919050565b5f6020820190508181035f830152611f3a81611f01565b9050919050565b7f4e4654206e6f74206c69737465640000000000000000000000000000000000005f82015250565b5f611f75600e836116e7565b9150611f8082611f41565b602082019050919050565b5f6020820190508181035f830152611fa281611f69565b9050919050565b5f606082019050611fbc5f830186611455565b611fc96020830185611455565b611fd66040830184611464565b949350505050565b7f4e487b71000000000000000000000000000000000000000000000000000000005f52602260045260245ffd5b5f600282049050600182168061202257607f821691505b60208210810361203557612034611fde565b5b50919050565b7f4e487b71000000000000000000000000000000000000000000000000000000005f52602160045260245ffd5b5f60a08201905061207b5f830188611770565b6120886020830187611770565b6120956040830186611770565b6120a26060830185611464565b6120af6080830184611455565b9695505050505050565b5f60ff82169050919050565b6120ce816120b9565b82525050565b5f6080820190506120e75f830187611770565b6120f460208301866120c5565b6121016040830185611770565b61210e6060830184611770565b9594505050505056fea2646970667358221220d4a0cebd60f81ebd2f4c9028b764bf4dd8b67f5d4f2e7fe9b97fe54d12f4add564736f6c63430008140033","linkReferences":{}},"methodIdentifiers":{"_PERMIT_TYPEHASH()":"982aaf6b","buyNFT(address,uint256)":"a82ba76f","eip712Domain()":"84b0196e","list(address,uint256,uint256)":"dda342bb","listings(address,uint256)":"0007df30","nonces(address)":"7ecebe00","onERC721Received(address,address,uint256,bytes)":"150b7a02","paymentToken()":"3013ce29","permitBuy(address,uint256,uint256,bytes)":"aedd4bcf","signer()":"238ac933","usedSignatures(bytes32)":"f978fd61"},"id":46}